{
  "contractName": "TodoList",
  "abi": [
    {
      "constant": true,
      "inputs": [],
      "name": "taskCount",
      "outputs": [
        {
          "name": "",
          "type": "uint256"
        }
      ],
      "payable": false,
      "stateMutability": "view",
      "type": "function"
    }
  ],
  "bytecode": "0x608060405260008055348015601357600080fd5b506077806100226000396000f3fe6080604052348015600f57600080fd5b506004361060285760003560e01c8063b6cb58a514602d575b600080fd5b60336045565b60408051918252519081900360200190f35b6000548156fea165627a7a7230582078d502ef7a2748effe7fc0f22d45ff8f6c8344a7736869eec71f26ced5f125c90029",
  "source": "// use the Solidity version\npragma solidity ^0.5.0;\n\n// after that define the test account\ncontract TodoList {\n    uint public taskCount = 0;\n}\n\n",
  "sourcePath": "/Users/glennou/todoBlockChain/contracts/TodoList.sol",
  "compiler": {
    "name": "solc",
    "version": "0.5.8+commit.23d335f2.Emscripten.clang"
  },
  "schemaVersion": "3.0.10",
  "updatedAt": "2022-04-16T06:54:27.707Z",
  "devdoc": {
    "methods": {}
  },
  "userdoc": {
    "methods": {}
  }
}